{
  "contractName": "CryptoKids",
  "abi": [
    {
      "inputs": [],
      "stateMutability": "nonpayable",
      "type": "constructor"
    },
    {
      "anonymous": false,
      "inputs": [
        {
          "indexed": false,
          "internalType": "address",
          "name": "addr",
          "type": "address"
        },
        {
          "indexed": false,
          "internalType": "uint256",
          "name": "amount",
          "type": "uint256"
        },
        {
          "indexed": false,
          "internalType": "uint256",
          "name": "contractBalance",
          "type": "uint256"
        }
      ],
      "name": "LogKidFundingReceived",
      "type": "event"
    },
    {
      "inputs": [
        {
          "internalType": "uint256",
          "name": "",
          "type": "uint256"
        }
      ],
      "name": "kids",
      "outputs": [
        {
          "internalType": "address payable",
          "name": "walletAddress",
          "type": "address"
        },
        {
          "internalType": "string",
          "name": "firstName",
          "type": "string"
        },
        {
          "internalType": "string",
          "name": "lastName",
          "type": "string"
        },
        {
          "internalType": "uint256",
          "name": "releaseTime",
          "type": "uint256"
        },
        {
          "internalType": "uint256",
          "name": "amount",
          "type": "uint256"
        },
        {
          "internalType": "bool",
          "name": "canWithdraw",
          "type": "bool"
        }
      ],
      "stateMutability": "view",
      "type": "function",
      "constant": true
    },
    {
      "inputs": [
        {
          "internalType": "address payable",
          "name": "walletAddress",
          "type": "address"
        },
        {
          "internalType": "string",
          "name": "firstName",
          "type": "string"
        },
        {
          "internalType": "string",
          "name": "lastName",
          "type": "string"
        },
        {
          "internalType": "uint256",
          "name": "releaseTime",
          "type": "uint256"
        },
        {
          "internalType": "uint256",
          "name": "amount",
          "type": "uint256"
        },
        {
          "internalType": "bool",
          "name": "canWithdraw",
          "type": "bool"
        }
      ],
      "name": "addKid",
      "outputs": [],
      "stateMutability": "nonpayable",
      "type": "function"
    },
    {
      "inputs": [],
      "name": "balanceOf",
      "outputs": [
        {
          "internalType": "uint256",
          "name": "",
          "type": "uint256"
        }
      ],
      "stateMutability": "view",
      "type": "function",
      "constant": true
    },
    {
      "inputs": [
        {
          "internalType": "address",
          "name": "walletAddress",
          "type": "address"
        }
      ],
      "name": "deposit",
      "outputs": [],
      "stateMutability": "payable",
      "type": "function",
      "payable": true
    },
    {
      "inputs": [
        {
          "internalType": "address",
          "name": "walletAddress",
          "type": "address"
        }
      ],
      "name": "availToWithdraw",
      "outputs": [
        {
          "internalType": "bool",
          "name": "",
          "type": "bool"
        }
      ],
      "stateMutability": "nonpayable",
      "type": "function"
    },
    {
      "inputs": [
        {
          "internalType": "address payable",
          "name": "walletAddress",
          "type": "address"
        }
      ],
      "name": "withdraw",
      "outputs": [],
      "stateMutability": "payable",
      "type": "function",
      "payable": true
    }
  ],
  "bytecode": "0x6080604052348015600f57600080fd5b50336000806101000a81548173ffffffffffffffffffffffffffffffffffffffff021916908373ffffffffffffffffffffffffffffffffffffffff1602179055506114d18061005f6000396000f3fe6080604052600436106100555760003560e01c806331d575c51461005a57806351cff8d91461008357806368d1e25c1461009f578063722713f7146100dc5780637285fd3a14610107578063f340fa0114610149575b600080fd5b34801561006657600080fd5b50610081600480360381019061007c9190610c0e565b610165565b005b61009d60048036038101906100989190610cd3565b610314565b005b3480156100ab57600080fd5b506100c660048036038101906100c19190610d3e565b610502565b6040516100d39190610d7a565b60405180910390f35b3480156100e857600080fd5b506100f16105f6565b6040516100fe9190610da4565b60405180910390f35b34801561011357600080fd5b5061012e60048036038101906101299190610dbf565b6105fe565b60405161014096959493929190610e7a565b60405180910390f35b610163600480360381019061015e9190610d3e565b610787565b005b3373ffffffffffffffffffffffffffffffffffffffff1660008054906101000a900473ffffffffffffffffffffffffffffffffffffffff1673ffffffffffffffffffffffffffffffffffffffff16146101f3576040517f08c379a00000000000000000000000000000000000000000000000000000000081526004016101ea90610f35565b60405180910390fd5b60016040518060c001604052808873ffffffffffffffffffffffffffffffffffffffff168152602001878152602001868152602001858152602001848152602001831515815250908060018154018082558091505060019003906000526020600020906006020160009091909190915060008201518160000160006101000a81548173ffffffffffffffffffffffffffffffffffffffff021916908373ffffffffffffffffffffffffffffffffffffffff16021790555060208201518160010190816102bf9190611161565b5060408201518160020190816102d59190611161565b50606082015181600301556080820151816004015560a08201518160050160006101000a81548160ff0219169083151502179055505050505050505050565b600061031f82610793565b90506001818154811061033557610334611233565b5b906000526020600020906006020160000160009054906101000a900473ffffffffffffffffffffffffffffffffffffffff1673ffffffffffffffffffffffffffffffffffffffff163373ffffffffffffffffffffffffffffffffffffffff16146103d4576040517f08c379a00000000000000000000000000000000000000000000000000000000081526004016103cb906112d4565b60405180910390fd5b60011515600182815481106103ec576103eb611233565b5b906000526020600020906006020160050160009054906101000a900460ff1615151461044d576040517f08c379a000000000000000000000000000000000000000000000000000000000815260040161044490611366565b60405180910390fd5b6001818154811061046157610460611233565b5b906000526020600020906006020160000160009054906101000a900473ffffffffffffffffffffffffffffffffffffffff1673ffffffffffffffffffffffffffffffffffffffff166108fc600183815481106104c0576104bf611233565b5b9060005260206000209060060201600401549081150290604051600060405180830381858888f193505050501580156104fd573d6000803e3d6000fd5b505050565b60008061050e83610793565b90506001818154811061052457610523611233565b5b9060005260206000209060060201600301544211610577576040517f08c379a000000000000000000000000000000000000000000000000000000000815260040161056e906113d2565b60405180910390fd5b6001818154811061058b5761058a611233565b5b9060005260206000209060060201600301544211156105eb5760018082815481106105b9576105b8611233565b5b906000526020600020906006020160050160006101000a81548160ff02191690831515021790555060019150506105f1565b60009150505b919050565b600047905090565b6001818154811061060e57600080fd5b90600052602060002090600602016000915090508060000160009054906101000a900473ffffffffffffffffffffffffffffffffffffffff169080600101805461065790610f84565b80601f016020809104026020016040519081016040528092919081815260200182805461068390610f84565b80156106d05780601f106106a5576101008083540402835291602001916106d0565b820191906000526020600020905b8154815290600101906020018083116106b357829003601f168201915b5050505050908060020180546106e590610f84565b80601f016020809104026020016040519081016040528092919081815260200182805461071190610f84565b801561075e5780601f106107335761010080835404028352916020019161075e565b820191906000526020600020905b81548152906001019060200180831161074157829003601f168201915b5050505050908060030154908060040154908060050160009054906101000a900460ff16905086565b61079081610842565b50565b600080600090505b600180549050811015610836578273ffffffffffffffffffffffffffffffffffffffff16600182815481106107d3576107d2611233565b5b906000526020600020906006020160000160009054906101000a900473ffffffffffffffffffffffffffffffffffffffff1673ffffffffffffffffffffffffffffffffffffffff1603610829578091505061083d565b808060010191505061079b565b506103e790505b919050565b3373ffffffffffffffffffffffffffffffffffffffff1660008054906101000a900473ffffffffffffffffffffffffffffffffffffffff1673ffffffffffffffffffffffffffffffffffffffff16146108d0576040517f08c379a00000000000000000000000000000000000000000000000000000000081526004016108c790610f35565b60405180910390fd5b60005b6001805490508110156109e4578173ffffffffffffffffffffffffffffffffffffffff166001828154811061090b5761090a611233565b5b906000526020600020906006020160000160009054906101000a900473ffffffffffffffffffffffffffffffffffffffff1673ffffffffffffffffffffffffffffffffffffffff16036109d757346001828154811061096d5761096c611233565b5b9060005260206000209060060201600401600082825461098d9190611421565b925050819055507fdfa390b0c1c515579c441209b0f88953b3383e444305380136073b84d9ae5eaf82346109bf6105f6565b6040516109ce93929190611464565b60405180910390a15b80806001019150506108d3565b5050565b6000604051905090565b600080fd5b600080fd5b600073ffffffffffffffffffffffffffffffffffffffff82169050919050565b6000610a27826109fc565b9050919050565b610a3781610a1c565b8114610a4257600080fd5b50565b600081359050610a5481610a2e565b92915050565b600080fd5b600080fd5b6000601f19601f8301169050919050565b7f4e487b7100000000000000000000000000000000000000000000000000000000600052604160045260246000fd5b610aad82610a64565b810181811067ffffffffffffffff82111715610acc57610acb610a75565b5b80604052505050565b6000610adf6109e8565b9050610aeb8282610aa4565b919050565b600067ffffffffffffffff821115610b0b57610b0a610a75565b5b610b1482610a64565b9050602081019050919050565b82818337600083830152505050565b6000610b43610b3e84610af0565b610ad5565b905082815260208101848484011115610b5f57610b5e610a5f565b5b610b6a848285610b21565b509392505050565b600082601f830112610b8757610b86610a5a565b5b8135610b97848260208601610b30565b91505092915050565b6000819050919050565b610bb381610ba0565b8114610bbe57600080fd5b50565b600081359050610bd081610baa565b92915050565b60008115159050919050565b610beb81610bd6565b8114610bf657600080fd5b50565b600081359050610c0881610be2565b92915050565b60008060008060008060c08789031215610c2b57610c2a6109f2565b5b6000610c3989828a01610a45565b965050602087013567ffffffffffffffff811115610c5a57610c596109f7565b5b610c6689828a01610b72565b955050604087013567ffffffffffffffff811115610c8757610c866109f7565b5b610c9389828a01610b72565b9450506060610ca489828a01610bc1565b9350506080610cb589828a01610bc1565b92505060a0610cc689828a01610bf9565b9150509295509295509295565b600060208284031215610ce957610ce86109f2565b5b6000610cf784828501610a45565b91505092915050565b6000610d0b826109fc565b9050919050565b610d1b81610d00565b8114610d2657600080fd5b50565b600081359050610d3881610d12565b92915050565b600060208284031215610d5457610d536109f2565b5b6000610d6284828501610d29565b91505092915050565b610d7481610bd6565b82525050565b6000602082019050610d8f6000830184610d6b565b92915050565b610d9e81610ba0565b82525050565b6000602082019050610db96000830184610d95565b92915050565b600060208284031215610dd557610dd46109f2565b5b6000610de384828501610bc1565b91505092915050565b610df581610a1c565b82525050565b600081519050919050565b600082825260208201905092915050565b60005b83811015610e35578082015181840152602081019050610e1a565b60008484015250505050565b6000610e4c82610dfb565b610e568185610e06565b9350610e66818560208601610e17565b610e6f81610a64565b840191505092915050565b600060c082019050610e8f6000830189610dec565b8181036020830152610ea18188610e41565b90508181036040830152610eb58187610e41565b9050610ec46060830186610d95565b610ed16080830185610d95565b610ede60a0830184610d6b565b979650505050505050565b7f4f6e6c7920746865206f776e65722063616e20616464206b6964730000000000600082015250565b6000610f1f601b83610e06565b9150610f2a82610ee9565b602082019050919050565b60006020820190508181036000830152610f4e81610f12565b9050919050565b7f4e487b7100000000000000000000000000000000000000000000000000000000600052602260045260246000fd5b60006002820490506001821680610f9c57607f821691505b602082108103610faf57610fae610f55565b5b50919050565b60008190508160005260206000209050919050565b60006020601f8301049050919050565b600082821b905092915050565b6000600883026110177fffffffffffffffffffffffffffffffffffffffffffffffffffffffffffffffff82610fda565b6110218683610fda565b95508019841693508086168417925050509392505050565b6000819050919050565b600061105e61105961105484610ba0565b611039565b610ba0565b9050919050565b6000819050919050565b61107883611043565b61108c61108482611065565b848454610fe7565b825550505050565b600090565b6110a1611094565b6110ac81848461106f565b505050565b5b818110156110d0576110c5600082611099565b6001810190506110b2565b5050565b601f821115611115576110e681610fb5565b6110ef84610fca565b810160208510156110fe578190505b61111261110a85610fca565b8301826110b1565b50505b505050565b600082821c905092915050565b60006111386000198460080261111a565b1980831691505092915050565b60006111518383611127565b9150826002028217905092915050565b61116a82610dfb565b67ffffffffffffffff81111561118357611182610a75565b5b61118d8254610f84565b6111988282856110d4565b600060209050601f8311600181146111cb57600084156111b9578287015190505b6111c38582611145565b86555061122b565b601f1984166111d986610fb5565b60005b82811015611201578489015182556001820191506020850194506020810190506111dc565b8683101561121e578489015161121a601f891682611127565b8355505b6001600288020188555050505b505050505050565b7f4e487b7100000000000000000000000000000000000000000000000000000000600052603260045260246000fd5b7f596f752063616e206f6e6c792077697468647261772066726f6d20796f75722060008201527f6f776e206163636f756e74000000000000000000000000000000000000000000602082015250565b60006112be602b83610e06565b91506112c982611262565b604082019050919050565b600060208201905081810360008301526112ed816112b1565b9050919050565b7f596f7520617265206e6f742061626c6520746f2077697468647261772061742060008201527f746869732074696d650000000000000000000000000000000000000000000000602082015250565b6000611350602983610e06565b915061135b826112f4565b604082019050919050565b6000602082019050818103600083015261137f81611343565b9050919050565b7f596f752063616e6e6f7420776974686472617720617420746869732074696d65600082015250565b60006113bc602083610e06565b91506113c782611386565b602082019050919050565b600060208201905081810360008301526113eb816113af565b9050919050565b7f4e487b7100000000000000000000000000000000000000000000000000000000600052601160045260246000fd5b600061142c82610ba0565b915061143783610ba0565b925082820190508082111561144f5761144e6113f2565b5b92915050565b61145e81610d00565b82525050565b60006060820190506114796000830186611455565b6114866020830185610d95565b6114936040830184610d95565b94935050505056fea2646970667358221220fa32cdd1573c81b17733a16fd66a16832588ff99f16eafb39cfb07a1212f352664736f6c63430008190033",
  "immutableReferences": {},
  "source": "// SPDX-License-Identifier: MIT\n\npragma solidity ^0.8.7;\n\ncontract CryptoKids {\n    // owner MUM\n    address owner;\n\n    // event // Log is by convention\n    event LogKidFundingReceived(address addr, uint amount, uint contractBalance);\n\n    constructor() {\n        owner = msg.sender;\n    }\n\n    // define kid\n    struct Kid {\n        address payable walletAddress;\n        string firstName;\n        string lastName;\n        uint releaseTime;\n        uint amount;\n        bool canWithdraw;\n    }\n\n\n    // add kid to contract\n    Kid[] public kids;\n\n    // Modifier\n    modifier onlyOwner() {\n        require(owner == msg.sender, \"Only the owner can add kids\");\n        _; // applicable to any functions \n    }\n\n    function addKid(address payable walletAddress, string memory firstName, string memory lastName, uint releaseTime, uint amount, bool canWithdraw) public onlyOwner {\n        \n        kids.push(Kid(\n            walletAddress,\n            firstName,\n            lastName,\n            releaseTime,\n            amount,\n            canWithdraw\n        ));\n    }\n\n    function balanceOf() public view returns(uint) {\n        return address(this).balance;\n    }\n\n    // deposit finds to contract, specifically to a kids's acct\n    function deposit(address walletAddress) payable public {\n        addToKidsBalance(walletAddress);\n    }\n\n    function addToKidsBalance(address walletAddress) private onlyOwner {\n        for(uint i = 0; i < kids.length; i++) {\n            if(kids[i].walletAddress == walletAddress) {\n                kids[i].amount += msg.value;\n                emit LogKidFundingReceived(walletAddress, msg.value, balanceOf());\n            }\n        }\n    }\n\n    function getIndex(address walletAddress) view private returns(uint) {\n        for(uint i=0; i < kids.length; i++) {\n            if(kids[i].walletAddress == walletAddress) {\n                return i;\n            }\n        }\n        return 999;\n    }\n\n    // kid checks if able to withdraw\n    function availToWithdraw(address walletAddress) public returns(bool) {\n        uint i = getIndex(walletAddress);\n        require(block.timestamp > kids[i].releaseTime, \"You cannot withdraw at this time\");\n        if (block.timestamp > kids[i].releaseTime) {\n            kids[i].canWithdraw = true;\n            return true;\n        } else {\n            return false;\n        }\n    }\n\n    // withdraw money if of age\n    function withdraw(address payable walletAddress) payable public {\n        \n        uint i = getIndex(walletAddress);\n        require(msg.sender == kids[i].walletAddress, \"You can only withdraw from your own account\");\n        require(kids[i].canWithdraw == true, \"You are not able to withdraw at this time\");\n        kids[i].walletAddress.transfer(kids[i].amount);\n    }\n}\n",
  "sourcePath": "/Users/anika/Desktop/VTTP/truffle-test/contracts/CryptoKids.sol",
  "compiler": {
    "name": "solc",
    "version": "0.8.25+commit.b61c2a91.Emscripten.clang"
  },
  "schemaVersion": "3.4.16",
  "updatedAt": "2024-04-02T07:33:31.080Z",
  "networkType": "ethereum",
  "devdoc": {
    "kind": "dev",
    "methods": {},
    "version": 1
  },
  "userdoc": {
    "kind": "user",
    "methods": {},
    "version": 1
  }
}