{
  "contractName": "PointSystem",
  "abi": [
    {
      "inputs": [
        {
          "internalType": "uint256",
          "name": "_requiredPoints",
          "type": "uint256"
        }
      ],
      "stateMutability": "nonpayable",
      "type": "constructor"
    },
    {
      "anonymous": false,
      "inputs": [
        {
          "indexed": true,
          "internalType": "address",
          "name": "user",
          "type": "address"
        },
        {
          "indexed": false,
          "internalType": "uint256",
          "name": "tokenId",
          "type": "uint256"
        }
      ],
      "name": "NFTClaimed",
      "type": "event"
    },
    {
      "inputs": [],
      "name": "owner",
      "outputs": [
        {
          "internalType": "address",
          "name": "",
          "type": "address"
        }
      ],
      "stateMutability": "view",
      "type": "function",
      "constant": true
    },
    {
      "inputs": [],
      "name": "requiredPoints",
      "outputs": [
        {
          "internalType": "uint256",
          "name": "",
          "type": "uint256"
        }
      ],
      "stateMutability": "view",
      "type": "function",
      "constant": true
    },
    {
      "inputs": [
        {
          "internalType": "address",
          "name": "",
          "type": "address"
        }
      ],
      "name": "userPoints",
      "outputs": [
        {
          "internalType": "uint256",
          "name": "",
          "type": "uint256"
        }
      ],
      "stateMutability": "view",
      "type": "function",
      "constant": true
    },
    {
      "inputs": [],
      "name": "claimNFT",
      "outputs": [],
      "stateMutability": "nonpayable",
      "type": "function"
    },
    {
      "inputs": [
        {
          "internalType": "address",
          "name": "user",
          "type": "address"
        },
        {
          "internalType": "uint256",
          "name": "points",
          "type": "uint256"
        }
      ],
      "name": "setUserPoints",
      "outputs": [],
      "stateMutability": "nonpayable",
      "type": "function"
    }
  ],
  "bytecode": "0x6080604052348015600f57600080fd5b506040516106a03803806106a08339818101604052810190602f919060b1565b336000806101000a81548173ffffffffffffffffffffffffffffffffffffffff021916908373ffffffffffffffffffffffffffffffffffffffff160217905550806001819055505060d9565b600080fd5b6000819050919050565b6091816080565b8114609b57600080fd5b50565b60008151905060ab81608a565b92915050565b60006020828403121560c45760c3607b565b5b600060d084828501609e565b91505092915050565b6105b8806100e86000396000f3fe608060405234801561001057600080fd5b50600436106100575760003560e01c8063672756ad1461005c5780636e12b46e146100665780638da5cb5b14610084578063a7ea87e2146100a2578063f50ddbc7146100be575b600080fd5b6100646100ee565b005b61006e610201565b60405161007b9190610332565b60405180910390f35b61008c610207565b604051610099919061038e565b60405180910390f35b6100bc60048036038101906100b79190610406565b61022b565b005b6100d860048036038101906100d39190610446565b610301565b6040516100e59190610332565b60405180910390f35b600154600260003373ffffffffffffffffffffffffffffffffffffffff1673ffffffffffffffffffffffffffffffffffffffff168152602001908152602001600020541015610172576040517f08c379a0000000000000000000000000000000000000000000000000000000008152600401610169906104f6565b60405180910390fd5b3373ffffffffffffffffffffffffffffffffffffffff167fb792983f4be9cd6a6722f6cf3c136d8cf44f77c5cf7cb263f75f36b04806a01b600260003373ffffffffffffffffffffffffffffffffffffffff1673ffffffffffffffffffffffffffffffffffffffff168152602001908152602001600020546040516101f79190610332565b60405180910390a2565b60015481565b60008054906101000a900473ffffffffffffffffffffffffffffffffffffffff1681565b60008054906101000a900473ffffffffffffffffffffffffffffffffffffffff1673ffffffffffffffffffffffffffffffffffffffff163373ffffffffffffffffffffffffffffffffffffffff16146102b9576040517f08c379a00000000000000000000000000000000000000000000000000000000081526004016102b090610562565b60405180910390fd5b80600260008473ffffffffffffffffffffffffffffffffffffffff1673ffffffffffffffffffffffffffffffffffffffff168152602001908152602001600020819055505050565b60026020528060005260406000206000915090505481565b6000819050919050565b61032c81610319565b82525050565b60006020820190506103476000830184610323565b92915050565b600073ffffffffffffffffffffffffffffffffffffffff82169050919050565b60006103788261034d565b9050919050565b6103888161036d565b82525050565b60006020820190506103a3600083018461037f565b92915050565b600080fd5b6103b78161036d565b81146103c257600080fd5b50565b6000813590506103d4816103ae565b92915050565b6103e381610319565b81146103ee57600080fd5b50565b600081359050610400816103da565b92915050565b6000806040838503121561041d5761041c6103a9565b5b600061042b858286016103c5565b925050602061043c858286016103f1565b9150509250929050565b60006020828403121561045c5761045b6103a9565b5b600061046a848285016103c5565b91505092915050565b600082825260208201905092915050565b7f5573657220646f6573206e6f74206861766520656e6f75676820706f696e747360008201527f20746f20636c61696d204e465400000000000000000000000000000000000000602082015250565b60006104e0602d83610473565b91506104eb82610484565b604082019050919050565b6000602082019050818103600083015261050f816104d3565b9050919050565b7f4f6e6c79206f776e65722063616e20736574207573657220706f696e74730000600082015250565b600061054c601e83610473565b915061055782610516565b602082019050919050565b6000602082019050818103600083015261057b8161053f565b905091905056fea26469706673582212208d188d9cb4d129c63da3efe822179a596e3b82213e1e3b4a71f6d18275820c2864736f6c63430008190033",
  "immutableReferences": {},
  "source": "// SPDX-License-Identifier: MIT\npragma solidity ^0.8.0;\n\ncontract PointSystem {\n    address public owner;\n    uint256 public requiredPoints;\n    mapping(address => uint256) public userPoints;\n\n    event NFTClaimed(address indexed user, uint256 tokenId);\n\n    constructor(uint256 _requiredPoints) {\n        owner = msg.sender;\n        requiredPoints = _requiredPoints;\n    }\n\n    function claimNFT() external {\n        require(userPoints[msg.sender] >= requiredPoints, \"User does not have enough points to claim NFT\");\n\n        // Instead of checking balanceOf and minting an ERC721 token, emit an event indicating the NFT claim\n        emit NFTClaimed(msg.sender, userPoints[msg.sender]);\n        \n        // Optionally, you can reset userPoints[msg.sender] to zero or perform other actions here\n    }\n\n    function setUserPoints(address user, uint256 points) external {\n        require(msg.sender == owner, \"Only owner can set user points\");\n        userPoints[user] = points;\n    }\n}\n",
  "sourcePath": "/Users/anika/Desktop/VTTP/truffle-test/contracts/PointSystem.sol",
  "compiler": {
    "name": "solc",
    "version": "0.8.25+commit.b61c2a91.Emscripten.clang"
  },
  "schemaVersion": "3.4.16",
  "updatedAt": "2024-04-01T11:01:02.588Z",
  "networkType": "ethereum",
  "devdoc": {
    "kind": "dev",
    "methods": {},
    "version": 1
  },
  "userdoc": {
    "kind": "user",
    "methods": {},
    "version": 1
  }
}