{
  "contractName": "PointSystemNFT",
  "abi": [
    {
      "inputs": [
        {
          "internalType": "string",
          "name": "_name",
          "type": "string"
        },
        {
          "internalType": "string",
          "name": "_symbol",
          "type": "string"
        },
        {
          "internalType": "uint256",
          "name": "_requiredPoints",
          "type": "uint256"
        }
      ],
      "stateMutability": "nonpayable",
      "type": "constructor"
    },
    {
      "inputs": [
        {
          "internalType": "address",
          "name": "sender",
          "type": "address"
        },
        {
          "internalType": "uint256",
          "name": "tokenId",
          "type": "uint256"
        },
        {
          "internalType": "address",
          "name": "owner",
          "type": "address"
        }
      ],
      "name": "ERC721IncorrectOwner",
      "type": "error"
    },
    {
      "inputs": [
        {
          "internalType": "address",
          "name": "operator",
          "type": "address"
        },
        {
          "internalType": "uint256",
          "name": "tokenId",
          "type": "uint256"
        }
      ],
      "name": "ERC721InsufficientApproval",
      "type": "error"
    },
    {
      "inputs": [
        {
          "internalType": "address",
          "name": "approver",
          "type": "address"
        }
      ],
      "name": "ERC721InvalidApprover",
      "type": "error"
    },
    {
      "inputs": [
        {
          "internalType": "address",
          "name": "operator",
          "type": "address"
        }
      ],
      "name": "ERC721InvalidOperator",
      "type": "error"
    },
    {
      "inputs": [
        {
          "internalType": "address",
          "name": "owner",
          "type": "address"
        }
      ],
      "name": "ERC721InvalidOwner",
      "type": "error"
    },
    {
      "inputs": [
        {
          "internalType": "address",
          "name": "receiver",
          "type": "address"
        }
      ],
      "name": "ERC721InvalidReceiver",
      "type": "error"
    },
    {
      "inputs": [
        {
          "internalType": "address",
          "name": "sender",
          "type": "address"
        }
      ],
      "name": "ERC721InvalidSender",
      "type": "error"
    },
    {
      "inputs": [
        {
          "internalType": "uint256",
          "name": "tokenId",
          "type": "uint256"
        }
      ],
      "name": "ERC721NonexistentToken",
      "type": "error"
    },
    {
      "anonymous": false,
      "inputs": [
        {
          "indexed": true,
          "internalType": "address",
          "name": "owner",
          "type": "address"
        },
        {
          "indexed": true,
          "internalType": "address",
          "name": "approved",
          "type": "address"
        },
        {
          "indexed": true,
          "internalType": "uint256",
          "name": "tokenId",
          "type": "uint256"
        }
      ],
      "name": "Approval",
      "type": "event"
    },
    {
      "anonymous": false,
      "inputs": [
        {
          "indexed": true,
          "internalType": "address",
          "name": "owner",
          "type": "address"
        },
        {
          "indexed": true,
          "internalType": "address",
          "name": "operator",
          "type": "address"
        },
        {
          "indexed": false,
          "internalType": "bool",
          "name": "approved",
          "type": "bool"
        }
      ],
      "name": "ApprovalForAll",
      "type": "event"
    },
    {
      "anonymous": false,
      "inputs": [
        {
          "indexed": true,
          "internalType": "address",
          "name": "user",
          "type": "address"
        },
        {
          "indexed": false,
          "internalType": "uint256",
          "name": "tokenId",
          "type": "uint256"
        }
      ],
      "name": "NFTClaimed",
      "type": "event"
    },
    {
      "anonymous": false,
      "inputs": [
        {
          "indexed": true,
          "internalType": "address",
          "name": "from",
          "type": "address"
        },
        {
          "indexed": true,
          "internalType": "address",
          "name": "to",
          "type": "address"
        },
        {
          "indexed": true,
          "internalType": "uint256",
          "name": "tokenId",
          "type": "uint256"
        }
      ],
      "name": "Transfer",
      "type": "event"
    },
    {
      "inputs": [
        {
          "internalType": "address",
          "name": "to",
          "type": "address"
        },
        {
          "internalType": "uint256",
          "name": "tokenId",
          "type": "uint256"
        }
      ],
      "name": "approve",
      "outputs": [],
      "stateMutability": "nonpayable",
      "type": "function"
    },
    {
      "inputs": [
        {
          "internalType": "address",
          "name": "owner",
          "type": "address"
        }
      ],
      "name": "balanceOf",
      "outputs": [
        {
          "internalType": "uint256",
          "name": "",
          "type": "uint256"
        }
      ],
      "stateMutability": "view",
      "type": "function",
      "constant": true
    },
    {
      "inputs": [
        {
          "internalType": "uint256",
          "name": "tokenId",
          "type": "uint256"
        }
      ],
      "name": "getApproved",
      "outputs": [
        {
          "internalType": "address",
          "name": "",
          "type": "address"
        }
      ],
      "stateMutability": "view",
      "type": "function",
      "constant": true
    },
    {
      "inputs": [
        {
          "internalType": "address",
          "name": "",
          "type": "address"
        }
      ],
      "name": "hasClaimedNFT",
      "outputs": [
        {
          "internalType": "bool",
          "name": "",
          "type": "bool"
        }
      ],
      "stateMutability": "view",
      "type": "function",
      "constant": true
    },
    {
      "inputs": [
        {
          "internalType": "address",
          "name": "owner",
          "type": "address"
        },
        {
          "internalType": "address",
          "name": "operator",
          "type": "address"
        }
      ],
      "name": "isApprovedForAll",
      "outputs": [
        {
          "internalType": "bool",
          "name": "",
          "type": "bool"
        }
      ],
      "stateMutability": "view",
      "type": "function",
      "constant": true
    },
    {
      "inputs": [],
      "name": "name",
      "outputs": [
        {
          "internalType": "string",
          "name": "",
          "type": "string"
        }
      ],
      "stateMutability": "view",
      "type": "function",
      "constant": true
    },
    {
      "inputs": [],
      "name": "owner",
      "outputs": [
        {
          "internalType": "address",
          "name": "",
          "type": "address"
        }
      ],
      "stateMutability": "view",
      "type": "function",
      "constant": true
    },
    {
      "inputs": [
        {
          "internalType": "uint256",
          "name": "tokenId",
          "type": "uint256"
        }
      ],
      "name": "ownerOf",
      "outputs": [
        {
          "internalType": "address",
          "name": "",
          "type": "address"
        }
      ],
      "stateMutability": "view",
      "type": "function",
      "constant": true
    },
    {
      "inputs": [],
      "name": "requiredPoints",
      "outputs": [
        {
          "internalType": "uint256",
          "name": "",
          "type": "uint256"
        }
      ],
      "stateMutability": "view",
      "type": "function",
      "constant": true
    },
    {
      "inputs": [
        {
          "internalType": "address",
          "name": "from",
          "type": "address"
        },
        {
          "internalType": "address",
          "name": "to",
          "type": "address"
        },
        {
          "internalType": "uint256",
          "name": "tokenId",
          "type": "uint256"
        }
      ],
      "name": "safeTransferFrom",
      "outputs": [],
      "stateMutability": "nonpayable",
      "type": "function"
    },
    {
      "inputs": [
        {
          "internalType": "address",
          "name": "from",
          "type": "address"
        },
        {
          "internalType": "address",
          "name": "to",
          "type": "address"
        },
        {
          "internalType": "uint256",
          "name": "tokenId",
          "type": "uint256"
        },
        {
          "internalType": "bytes",
          "name": "data",
          "type": "bytes"
        }
      ],
      "name": "safeTransferFrom",
      "outputs": [],
      "stateMutability": "nonpayable",
      "type": "function"
    },
    {
      "inputs": [
        {
          "internalType": "address",
          "name": "operator",
          "type": "address"
        },
        {
          "internalType": "bool",
          "name": "approved",
          "type": "bool"
        }
      ],
      "name": "setApprovalForAll",
      "outputs": [],
      "stateMutability": "nonpayable",
      "type": "function"
    },
    {
      "inputs": [
        {
          "internalType": "bytes4",
          "name": "interfaceId",
          "type": "bytes4"
        }
      ],
      "name": "supportsInterface",
      "outputs": [
        {
          "internalType": "bool",
          "name": "",
          "type": "bool"
        }
      ],
      "stateMutability": "view",
      "type": "function",
      "constant": true
    },
    {
      "inputs": [],
      "name": "symbol",
      "outputs": [
        {
          "internalType": "string",
          "name": "",
          "type": "string"
        }
      ],
      "stateMutability": "view",
      "type": "function",
      "constant": true
    },
    {
      "inputs": [
        {
          "internalType": "uint256",
          "name": "tokenId",
          "type": "uint256"
        }
      ],
      "name": "tokenURI",
      "outputs": [
        {
          "internalType": "string",
          "name": "",
          "type": "string"
        }
      ],
      "stateMutability": "view",
      "type": "function",
      "constant": true
    },
    {
      "inputs": [
        {
          "internalType": "address",
          "name": "from",
          "type": "address"
        },
        {
          "internalType": "address",
          "name": "to",
          "type": "address"
        },
        {
          "internalType": "uint256",
          "name": "tokenId",
          "type": "uint256"
        }
      ],
      "name": "transferFrom",
      "outputs": [],
      "stateMutability": "nonpayable",
      "type": "function"
    },
    {
      "inputs": [
        {
          "internalType": "address",
          "name": "",
          "type": "address"
        }
      ],
      "name": "userPoints",
      "outputs": [
        {
          "internalType": "uint256",
          "name": "",
          "type": "uint256"
        }
      ],
      "stateMutability": "view",
      "type": "function",
      "constant": true
    },
    {
      "inputs": [],
      "name": "claimNFT",
      "outputs": [],
      "stateMutability": "nonpayable",
      "type": "function"
    },
    {
      "inputs": [
        {
          "internalType": "address",
          "name": "user",
          "type": "address"
        },
        {
          "internalType": "uint256",
          "name": "points",
          "type": "uint256"
        }
      ],
      "name": "setUserPoints",
      "outputs": [],
      "stateMutability": "nonpayable",
      "type": "function"
    }
  ],
  "bytecode": "0x608060405234801561001057600080fd5b5060405161298c38038061298c83398181016040528101906100329190610251565b8282816000908161004391906104f3565b50806001908161005391906104f3565b50505033600660006101000a81548173ffffffffffffffffffffffffffffffffffffffff021916908373ffffffffffffffffffffffffffffffffffffffff160217905550806007819055505050506105c5565b6000604051905090565b600080fd5b600080fd5b600080fd5b600080fd5b6000601f19601f8301169050919050565b7f4e487b7100000000000000000000000000000000000000000000000000000000600052604160045260246000fd5b61010d826100c4565b810181811067ffffffffffffffff8211171561012c5761012b6100d5565b5b80604052505050565b600061013f6100a6565b905061014b8282610104565b919050565b600067ffffffffffffffff82111561016b5761016a6100d5565b5b610174826100c4565b9050602081019050919050565b60005b8381101561019f578082015181840152602081019050610184565b60008484015250505050565b60006101be6101b984610150565b610135565b9050828152602081018484840111156101da576101d96100bf565b5b6101e5848285610181565b509392505050565b600082601f830112610202576102016100ba565b5b81516102128482602086016101ab565b91505092915050565b6000819050919050565b61022e8161021b565b811461023957600080fd5b50565b60008151905061024b81610225565b92915050565b60008060006060848603121561026a576102696100b0565b5b600084015167ffffffffffffffff811115610288576102876100b5565b5b610294868287016101ed565b935050602084015167ffffffffffffffff8111156102b5576102b46100b5565b5b6102c1868287016101ed565b92505060406102d28682870161023c565b9150509250925092565b600081519050919050565b7f4e487b7100000000000000000000000000000000000000000000000000000000600052602260045260246000fd5b6000600282049050600182168061032e57607f821691505b602082108103610341576103406102e7565b5b50919050565b60008190508160005260206000209050919050565b60006020601f8301049050919050565b600082821b905092915050565b6000600883026103a97fffffffffffffffffffffffffffffffffffffffffffffffffffffffffffffffff8261036c565b6103b3868361036c565b95508019841693508086168417925050509392505050565b6000819050919050565b60006103f06103eb6103e68461021b565b6103cb565b61021b565b9050919050565b6000819050919050565b61040a836103d5565b61041e610416826103f7565b848454610379565b825550505050565b600090565b610433610426565b61043e818484610401565b505050565b5b818110156104625761045760008261042b565b600181019050610444565b5050565b601f8211156104a75761047881610347565b6104818461035c565b81016020851015610490578190505b6104a461049c8561035c565b830182610443565b50505b505050565b600082821c905092915050565b60006104ca600019846008026104ac565b1980831691505092915050565b60006104e383836104b9565b9150826002028217905092915050565b6104fc826102dc565b67ffffffffffffffff811115610515576105146100d5565b5b61051f8254610316565b61052a828285610466565b600060209050601f83116001811461055d576000841561054b578287015190505b61055585826104d7565b8655506105bd565b601f19841661056b86610347565b60005b828110156105935784890151825560018201915060208501945060208101905061056e565b868310156105b057848901516105ac601f8916826104b9565b8355505b6001600288020188555050505b505050505050565b6123b8806105d46000396000f3fe608060405234801561001057600080fd5b50600436106101215760003560e01c80636e12b46e116100ad578063a7ea87e211610071578063a7ea87e214610308578063b88d4fde14610324578063c87b56dd14610340578063e985e9c514610370578063f50ddbc7146103a057610121565b80636e12b46e1461026257806370a08231146102805780638da5cb5b146102b057806395d89b41146102ce578063a22cb465146102ec57610121565b806323b872dd116100f457806323b872dd146101c057806342842e0e146101dc57806352fcc747146101f85780636352211e14610228578063672756ad1461025857610121565b806301ffc9a71461012657806306fdde0314610156578063081812fc14610174578063095ea7b3146101a4575b600080fd5b610140600480360381019061013b9190611a03565b6103d0565b60405161014d9190611a4b565b60405180910390f35b61015e6104b2565b60405161016b9190611af6565b60405180910390f35b61018e60048036038101906101899190611b4e565b610544565b60405161019b9190611bbc565b60405180910390f35b6101be60048036038101906101b99190611c03565b610560565b005b6101da60048036038101906101d59190611c43565b610576565b005b6101f660048036038101906101f19190611c43565b610678565b005b610212600480360381019061020d9190611c96565b610698565b60405161021f9190611a4b565b60405180910390f35b610242600480360381019061023d9190611b4e565b6106b8565b60405161024f9190611bbc565b60405180910390f35b6102606106ca565b005b61026a6108be565b6040516102779190611cd2565b60405180910390f35b61029a60048036038101906102959190611c96565b6108c4565b6040516102a79190611cd2565b60405180910390f35b6102b861097e565b6040516102c59190611bbc565b60405180910390f35b6102d66109a4565b6040516102e39190611af6565b60405180910390f35b61030660048036038101906103019190611d19565b610a36565b005b610322600480360381019061031d9190611c03565b610a4c565b005b61033e60048036038101906103399190611e8e565b610b24565b005b61035a60048036038101906103559190611b4e565b610b41565b6040516103679190611af6565b60405180910390f35b61038a60048036038101906103859190611f11565b610baa565b6040516103979190611a4b565b60405180910390f35b6103ba60048036038101906103b59190611c96565b610c3e565b6040516103c79190611cd2565b60405180910390f35b60007f80ac58cd000000000000000000000000000000000000000000000000000000007bffffffffffffffffffffffffffffffffffffffffffffffffffffffff1916827bffffffffffffffffffffffffffffffffffffffffffffffffffffffff1916148061049b57507f5b5e139f000000000000000000000000000000000000000000000000000000007bffffffffffffffffffffffffffffffffffffffffffffffffffffffff1916827bffffffffffffffffffffffffffffffffffffffffffffffffffffffff1916145b806104ab57506104aa82610c56565b5b9050919050565b6060600080546104c190611f80565b80601f01602080910402602001604051908101604052809291908181526020018280546104ed90611f80565b801561053a5780601f1061050f5761010080835404028352916020019161053a565b820191906000526020600020905b81548152906001019060200180831161051d57829003601f168201915b5050505050905090565b600061054f82610cc0565b5061055982610d48565b9050919050565b610572828261056d610d85565b610d8d565b5050565b600073ffffffffffffffffffffffffffffffffffffffff168273ffffffffffffffffffffffffffffffffffffffff16036105e85760006040517f64a0ae920000000000000000000000000000000000000000000000000000000081526004016105df9190611bbc565b60405180910390fd5b60006105fc83836105f7610d85565b610d9f565b90508373ffffffffffffffffffffffffffffffffffffffff168173ffffffffffffffffffffffffffffffffffffffff1614610672578382826040517f64283d7b00000000000000000000000000000000000000000000000000000000815260040161066993929190611fb1565b60405180910390fd5b50505050565b61069383838360405180602001604052806000815250610b24565b505050565b60096020528060005260406000206000915054906101000a900460ff1681565b60006106c382610cc0565b9050919050565b600754600860003373ffffffffffffffffffffffffffffffffffffffff1673ffffffffffffffffffffffffffffffffffffffff16815260200190815260200160002054101561074e576040517f08c379a00000000000000000000000000000000000000000000000000000000081526004016107459061205a565b60405180910390fd5b600960003373ffffffffffffffffffffffffffffffffffffffff1673ffffffffffffffffffffffffffffffffffffffff16815260200190815260200160002060009054906101000a900460ff16156107db576040517f08c379a00000000000000000000000000000000000000000000000000000000081526004016107d2906120c6565b60405180910390fd5b600033436040516020016107f092919061214f565b6040516020818303038152906040528051906020012060001c90506108153382610fb9565b6001600960003373ffffffffffffffffffffffffffffffffffffffff1673ffffffffffffffffffffffffffffffffffffffff16815260200190815260200160002060006101000a81548160ff0219169083151502179055503373ffffffffffffffffffffffffffffffffffffffff167fb792983f4be9cd6a6722f6cf3c136d8cf44f77c5cf7cb263f75f36b04806a01b826040516108b39190611cd2565b60405180910390a250565b60075481565b60008073ffffffffffffffffffffffffffffffffffffffff168273ffffffffffffffffffffffffffffffffffffffff16036109375760006040517f89c62b6400000000000000000000000000000000000000000000000000000000815260040161092e9190611bbc565b60405180910390fd5b600360008373ffffffffffffffffffffffffffffffffffffffff1673ffffffffffffffffffffffffffffffffffffffff168152602001908152602001600020549050919050565b600660009054906101000a900473ffffffffffffffffffffffffffffffffffffffff1681565b6060600180546109b390611f80565b80601f01602080910402602001604051908101604052809291908181526020018280546109df90611f80565b8015610a2c5780601f10610a0157610100808354040283529160200191610a2c565b820191906000526020600020905b815481529060010190602001808311610a0f57829003601f168201915b5050505050905090565b610a48610a41610d85565b83836110b2565b5050565b600660009054906101000a900473ffffffffffffffffffffffffffffffffffffffff1673ffffffffffffffffffffffffffffffffffffffff163373ffffffffffffffffffffffffffffffffffffffff1614610adc576040517f08c379a0000000000000000000000000000000000000000000000000000000008152600401610ad3906121c7565b60405180910390fd5b80600860008473ffffffffffffffffffffffffffffffffffffffff1673ffffffffffffffffffffffffffffffffffffffff168152602001908152602001600020819055505050565b610b2f848484610576565b610b3b84848484611221565b50505050565b6060610b4c82610cc0565b506000610b576113d8565b90506000815111610b775760405180602001604052806000815250610ba2565b80610b81846113ef565b604051602001610b92929190612223565b6040516020818303038152906040525b915050919050565b6000600560008473ffffffffffffffffffffffffffffffffffffffff1673ffffffffffffffffffffffffffffffffffffffff16815260200190815260200160002060008373ffffffffffffffffffffffffffffffffffffffff1673ffffffffffffffffffffffffffffffffffffffff16815260200190815260200160002060009054906101000a900460ff16905092915050565b60086020528060005260406000206000915090505481565b60007f01ffc9a7000000000000000000000000000000000000000000000000000000007bffffffffffffffffffffffffffffffffffffffffffffffffffffffff1916827bffffffffffffffffffffffffffffffffffffffffffffffffffffffff1916149050919050565b600080610ccc836114bd565b9050600073ffffffffffffffffffffffffffffffffffffffff168173ffffffffffffffffffffffffffffffffffffffff1603610d3f57826040517f7e273289000000000000000000000000000000000000000000000000000000008152600401610d369190611cd2565b60405180910390fd5b80915050919050565b60006004600083815260200190815260200160002060009054906101000a900473ffffffffffffffffffffffffffffffffffffffff169050919050565b600033905090565b610d9a83838360016114fa565b505050565b600080610dab846114bd565b9050600073ffffffffffffffffffffffffffffffffffffffff168373ffffffffffffffffffffffffffffffffffffffff1614610ded57610dec8184866116bf565b5b600073ffffffffffffffffffffffffffffffffffffffff168173ffffffffffffffffffffffffffffffffffffffff1614610e7e57610e2f6000856000806114fa565b6001600360008373ffffffffffffffffffffffffffffffffffffffff1673ffffffffffffffffffffffffffffffffffffffff168152602001908152602001600020600082825403925050819055505b600073ffffffffffffffffffffffffffffffffffffffff168573ffffffffffffffffffffffffffffffffffffffff1614610f01576001600360008773ffffffffffffffffffffffffffffffffffffffff1673ffffffffffffffffffffffffffffffffffffffff168152602001908152602001600020600082825401925050819055505b846002600086815260200190815260200160002060006101000a81548173ffffffffffffffffffffffffffffffffffffffff021916908373ffffffffffffffffffffffffffffffffffffffff160217905550838573ffffffffffffffffffffffffffffffffffffffff168273ffffffffffffffffffffffffffffffffffffffff167fddf252ad1be2c89b69c2b068fc378daa952ba7f163c4a11628f55a4df523b3ef60405160405180910390a4809150509392505050565b600073ffffffffffffffffffffffffffffffffffffffff168273ffffffffffffffffffffffffffffffffffffffff160361102b5760006040517f64a0ae920000000000000000000000000000000000000000000000000000000081526004016110229190611bbc565b60405180910390fd5b600061103983836000610d9f565b9050600073ffffffffffffffffffffffffffffffffffffffff168173ffffffffffffffffffffffffffffffffffffffff16146110ad5760006040517f73c6ac6e0000000000000000000000000000000000000000000000000000000081526004016110a49190611bbc565b60405180910390fd5b505050565b600073ffffffffffffffffffffffffffffffffffffffff168273ffffffffffffffffffffffffffffffffffffffff160361112357816040517f5b08ba1800000000000000000000000000000000000000000000000000000000815260040161111a9190611bbc565b60405180910390fd5b80600560008573ffffffffffffffffffffffffffffffffffffffff1673ffffffffffffffffffffffffffffffffffffffff16815260200190815260200160002060008473ffffffffffffffffffffffffffffffffffffffff1673ffffffffffffffffffffffffffffffffffffffff16815260200190815260200160002060006101000a81548160ff0219169083151502179055508173ffffffffffffffffffffffffffffffffffffffff168373ffffffffffffffffffffffffffffffffffffffff167f17307eab39ab6107e8899845ad3d59bd9653f200f220920489ca2b5937696c31836040516112149190611a4b565b60405180910390a3505050565b60008373ffffffffffffffffffffffffffffffffffffffff163b11156113d2578273ffffffffffffffffffffffffffffffffffffffff1663150b7a02611265610d85565b8685856040518563ffffffff1660e01b8152600401611287949392919061229c565b6020604051808303816000875af19250505080156112c357506040513d601f19601f820116820180604052508101906112c091906122fd565b60015b611347573d80600081146112f3576040519150601f19603f3d011682016040523d82523d6000602084013e6112f8565b606091505b50600081510361133f57836040517f64a0ae920000000000000000000000000000000000000000000000000000000081526004016113369190611bbc565b60405180910390fd5b805181602001fd5b63150b7a0260e01b7bffffffffffffffffffffffffffffffffffffffffffffffffffffffff1916817bffffffffffffffffffffffffffffffffffffffffffffffffffffffff1916146113d057836040517f64a0ae920000000000000000000000000000000000000000000000000000000081526004016113c79190611bbc565b60405180910390fd5b505b50505050565b606060405180602001604052806000815250905090565b6060600060016113fe84611783565b01905060008167ffffffffffffffff81111561141d5761141c611d63565b5b6040519080825280601f01601f19166020018201604052801561144f5781602001600182028036833780820191505090505b509050600082602001820190505b6001156114b2578080600190039150507f3031323334353637383961626364656600000000000000000000000000000000600a86061a8153600a85816114a6576114a561232a565b5b0494506000850361145d575b819350505050919050565b60006002600083815260200190815260200160002060009054906101000a900473ffffffffffffffffffffffffffffffffffffffff169050919050565b80806115335750600073ffffffffffffffffffffffffffffffffffffffff168273ffffffffffffffffffffffffffffffffffffffff1614155b1561166757600061154384610cc0565b9050600073ffffffffffffffffffffffffffffffffffffffff168373ffffffffffffffffffffffffffffffffffffffff16141580156115ae57508273ffffffffffffffffffffffffffffffffffffffff168173ffffffffffffffffffffffffffffffffffffffff1614155b80156115c157506115bf8184610baa565b155b1561160357826040517fa9fbf51f0000000000000000000000000000000000000000000000000000000081526004016115fa9190611bbc565b60405180910390fd5b811561166557838573ffffffffffffffffffffffffffffffffffffffff168273ffffffffffffffffffffffffffffffffffffffff167f8c5be1e5ebec7d5bd14f71427d1e84f3dd0314c0f7b2291e5b200ac8c7c3b92560405160405180910390a45b505b836004600085815260200190815260200160002060006101000a81548173ffffffffffffffffffffffffffffffffffffffff021916908373ffffffffffffffffffffffffffffffffffffffff16021790555050505050565b6116ca8383836118d6565b61177e57600073ffffffffffffffffffffffffffffffffffffffff168373ffffffffffffffffffffffffffffffffffffffff160361173f57806040517f7e2732890000000000000000000000000000000000000000000000000000000081526004016117369190611cd2565b60405180910390fd5b81816040517f177e802f000000000000000000000000000000000000000000000000000000008152600401611775929190612359565b60405180910390fd5b505050565b600080600090507a184f03e93ff9f4daa797ed6e38ed64bf6a1f01000000000000000083106117e1577a184f03e93ff9f4daa797ed6e38ed64bf6a1f01000000000000000083816117d7576117d661232a565b5b0492506040810190505b6d04ee2d6d415b85acef8100000000831061181e576d04ee2d6d415b85acef810000000083816118145761181361232a565b5b0492506020810190505b662386f26fc10000831061184d57662386f26fc1000083816118435761184261232a565b5b0492506010810190505b6305f5e1008310611876576305f5e100838161186c5761186b61232a565b5b0492506008810190505b612710831061189b5761271083816118915761189061232a565b5b0492506004810190505b606483106118be57606483816118b4576118b361232a565b5b0492506002810190505b600a83106118cd576001810190505b80915050919050565b60008073ffffffffffffffffffffffffffffffffffffffff168373ffffffffffffffffffffffffffffffffffffffff161415801561198e57508273ffffffffffffffffffffffffffffffffffffffff168473ffffffffffffffffffffffffffffffffffffffff16148061194f575061194e8484610baa565b5b8061198d57508273ffffffffffffffffffffffffffffffffffffffff1661197583610d48565b73ffffffffffffffffffffffffffffffffffffffff16145b5b90509392505050565b6000604051905090565b600080fd5b600080fd5b60007fffffffff0000000000000000000000000000000000000000000000000000000082169050919050565b6119e0816119ab565b81146119eb57600080fd5b50565b6000813590506119fd816119d7565b92915050565b600060208284031215611a1957611a186119a1565b5b6000611a27848285016119ee565b91505092915050565b60008115159050919050565b611a4581611a30565b82525050565b6000602082019050611a606000830184611a3c565b92915050565b600081519050919050565b600082825260208201905092915050565b60005b83811015611aa0578082015181840152602081019050611a85565b60008484015250505050565b6000601f19601f8301169050919050565b6000611ac882611a66565b611ad28185611a71565b9350611ae2818560208601611a82565b611aeb81611aac565b840191505092915050565b60006020820190508181036000830152611b108184611abd565b905092915050565b6000819050919050565b611b2b81611b18565b8114611b3657600080fd5b50565b600081359050611b4881611b22565b92915050565b600060208284031215611b6457611b636119a1565b5b6000611b7284828501611b39565b91505092915050565b600073ffffffffffffffffffffffffffffffffffffffff82169050919050565b6000611ba682611b7b565b9050919050565b611bb681611b9b565b82525050565b6000602082019050611bd16000830184611bad565b92915050565b611be081611b9b565b8114611beb57600080fd5b50565b600081359050611bfd81611bd7565b92915050565b60008060408385031215611c1a57611c196119a1565b5b6000611c2885828601611bee565b9250506020611c3985828601611b39565b9150509250929050565b600080600060608486031215611c5c57611c5b6119a1565b5b6000611c6a86828701611bee565b9350506020611c7b86828701611bee565b9250506040611c8c86828701611b39565b9150509250925092565b600060208284031215611cac57611cab6119a1565b5b6000611cba84828501611bee565b91505092915050565b611ccc81611b18565b82525050565b6000602082019050611ce76000830184611cc3565b92915050565b611cf681611a30565b8114611d0157600080fd5b50565b600081359050611d1381611ced565b92915050565b60008060408385031215611d3057611d2f6119a1565b5b6000611d3e85828601611bee565b9250506020611d4f85828601611d04565b9150509250929050565b600080fd5b600080fd5b7f4e487b7100000000000000000000000000000000000000000000000000000000600052604160045260246000fd5b611d9b82611aac565b810181811067ffffffffffffffff82111715611dba57611db9611d63565b5b80604052505050565b6000611dcd611997565b9050611dd98282611d92565b919050565b600067ffffffffffffffff821115611df957611df8611d63565b5b611e0282611aac565b9050602081019050919050565b82818337600083830152505050565b6000611e31611e2c84611dde565b611dc3565b905082815260208101848484011115611e4d57611e4c611d5e565b5b611e58848285611e0f565b509392505050565b600082601f830112611e7557611e74611d59565b5b8135611e85848260208601611e1e565b91505092915050565b60008060008060808587031215611ea857611ea76119a1565b5b6000611eb687828801611bee565b9450506020611ec787828801611bee565b9350506040611ed887828801611b39565b925050606085013567ffffffffffffffff811115611ef957611ef86119a6565b5b611f0587828801611e60565b91505092959194509250565b60008060408385031215611f2857611f276119a1565b5b6000611f3685828601611bee565b9250506020611f4785828601611bee565b9150509250929050565b7f4e487b7100000000000000000000000000000000000000000000000000000000600052602260045260246000fd5b60006002820490506001821680611f9857607f821691505b602082108103611fab57611faa611f51565b5b50919050565b6000606082019050611fc66000830186611bad565b611fd36020830185611cc3565b611fe06040830184611bad565b949350505050565b7f5573657220646f6573206e6f74206861766520656e6f75676820706f696e747360008201527f20746f20636c61696d204e465400000000000000000000000000000000000000602082015250565b6000612044602d83611a71565b915061204f82611fe8565b604082019050919050565b6000602082019050818103600083015261207381612037565b9050919050565b7f557365722068617320616c726561647920636c61696d656420616e204e465400600082015250565b60006120b0601f83611a71565b91506120bb8261207a565b602082019050919050565b600060208201905081810360008301526120df816120a3565b9050919050565b60008160601b9050919050565b60006120fe826120e6565b9050919050565b6000612110826120f3565b9050919050565b61212861212382611b9b565b612105565b82525050565b6000819050919050565b61214961214482611b18565b61212e565b82525050565b600061215b8285612117565b60148201915061216b8284612138565b6020820191508190509392505050565b7f4f6e6c79206f776e65722063616e20736574207573657220706f696e74730000600082015250565b60006121b1601e83611a71565b91506121bc8261217b565b602082019050919050565b600060208201905081810360008301526121e0816121a4565b9050919050565b600081905092915050565b60006121fd82611a66565b61220781856121e7565b9350612217818560208601611a82565b80840191505092915050565b600061222f82856121f2565b915061223b82846121f2565b91508190509392505050565b600081519050919050565b600082825260208201905092915050565b600061226e82612247565b6122788185612252565b9350612288818560208601611a82565b61229181611aac565b840191505092915050565b60006080820190506122b16000830187611bad565b6122be6020830186611bad565b6122cb6040830185611cc3565b81810360608301526122dd8184612263565b905095945050505050565b6000815190506122f7816119d7565b92915050565b600060208284031215612313576123126119a1565b5b6000612321848285016122e8565b91505092915050565b7f4e487b7100000000000000000000000000000000000000000000000000000000600052601260045260246000fd5b600060408201905061236e6000830185611bad565b61237b6020830184611cc3565b939250505056fea2646970667358221220bf037c1f93223d1126353f45b69d15341653508d41efdf0ea2fdd36fcad99d5c64736f6c63430008190033",
  "immutableReferences": {},
  "source": "// SPDX-License-Identifier: MIT\npragma solidity ^0.8.0;\n\nimport \"@openzeppelin/contracts/token/ERC721/ERC721.sol\";\n\ncontract PointSystemNFT is ERC721 {\n    address public owner;\n    uint256 public requiredPoints;\n    mapping(address => uint256) public userPoints;\n    mapping(address => bool) public hasClaimedNFT; // Track if a user has claimed an NFT\n\n    event NFTClaimed(address indexed user, uint256 tokenId);\n\n    constructor(string memory _name, string memory _symbol, uint256 _requiredPoints) ERC721(_name, _symbol) {\n        owner = msg.sender;\n        requiredPoints = _requiredPoints;\n    }\n\n    function claimNFT() external {\n        require(userPoints[msg.sender] >= requiredPoints, \"User does not have enough points to claim NFT\");\n        require(!hasClaimedNFT[msg.sender], \"User has already claimed an NFT\");\n\n        uint256 tokenId = uint256(keccak256(abi.encodePacked(msg.sender, block.number))); // Generate unique token ID\n        _mint(msg.sender, tokenId);\n        hasClaimedNFT[msg.sender] = true; // Mark user as having claimed an NFT\n        emit NFTClaimed(msg.sender, tokenId);\n    }\n\n    function setUserPoints(address user, uint256 points) external {\n        require(msg.sender == owner, \"Only owner can set user points\");\n        userPoints[user] = points;\n    }\n}\n",
  "sourcePath": "/Users/anika/Desktop/VTTP/truffle-test/contracts/PointSystemNFT.sol",
  "compiler": {
    "name": "solc",
    "version": "0.8.25+commit.b61c2a91.Emscripten.clang"
  },
  "schemaVersion": "3.4.16",
  "updatedAt": "2024-04-01T11:01:02.705Z",
  "networkType": "ethereum",
  "devdoc": {
    "errors": {
      "ERC721IncorrectOwner(address,uint256,address)": [
        {
          "details": "Indicates an error related to the ownership over a particular token. Used in transfers.",
          "params": {
            "owner": "Address of the current owner of a token.",
            "sender": "Address whose tokens are being transferred.",
            "tokenId": "Identifier number of a token."
          }
        }
      ],
      "ERC721InsufficientApproval(address,uint256)": [
        {
          "details": "Indicates a failure with the `operator`s approval. Used in transfers.",
          "params": {
            "operator": "Address that may be allowed to operate on tokens without being their owner.",
            "tokenId": "Identifier number of a token."
          }
        }
      ],
      "ERC721InvalidApprover(address)": [
        {
          "details": "Indicates a failure with the `approver` of a token to be approved. Used in approvals.",
          "params": {
            "approver": "Address initiating an approval operation."
          }
        }
      ],
      "ERC721InvalidOperator(address)": [
        {
          "details": "Indicates a failure with the `operator` to be approved. Used in approvals.",
          "params": {
            "operator": "Address that may be allowed to operate on tokens without being their owner."
          }
        }
      ],
      "ERC721InvalidOwner(address)": [
        {
          "details": "Indicates that an address can't be an owner. For example, `address(0)` is a forbidden owner in EIP-20. Used in balance queries.",
          "params": {
            "owner": "Address of the current owner of a token."
          }
        }
      ],
      "ERC721InvalidReceiver(address)": [
        {
          "details": "Indicates a failure with the token `receiver`. Used in transfers.",
          "params": {
            "receiver": "Address to which tokens are being transferred."
          }
        }
      ],
      "ERC721InvalidSender(address)": [
        {
          "details": "Indicates a failure with the token `sender`. Used in transfers.",
          "params": {
            "sender": "Address whose tokens are being transferred."
          }
        }
      ],
      "ERC721NonexistentToken(uint256)": [
        {
          "details": "Indicates a `tokenId` whose `owner` is the zero address.",
          "params": {
            "tokenId": "Identifier number of a token."
          }
        }
      ]
    },
    "events": {
      "Approval(address,address,uint256)": {
        "details": "Emitted when `owner` enables `approved` to manage the `tokenId` token."
      },
      "ApprovalForAll(address,address,bool)": {
        "details": "Emitted when `owner` enables or disables (`approved`) `operator` to manage all of its assets."
      },
      "Transfer(address,address,uint256)": {
        "details": "Emitted when `tokenId` token is transferred from `from` to `to`."
      }
    },
    "kind": "dev",
    "methods": {
      "approve(address,uint256)": {
        "details": "See {IERC721-approve}."
      },
      "balanceOf(address)": {
        "details": "See {IERC721-balanceOf}."
      },
      "getApproved(uint256)": {
        "details": "See {IERC721-getApproved}."
      },
      "isApprovedForAll(address,address)": {
        "details": "See {IERC721-isApprovedForAll}."
      },
      "name()": {
        "details": "See {IERC721Metadata-name}."
      },
      "ownerOf(uint256)": {
        "details": "See {IERC721-ownerOf}."
      },
      "safeTransferFrom(address,address,uint256)": {
        "details": "See {IERC721-safeTransferFrom}."
      },
      "safeTransferFrom(address,address,uint256,bytes)": {
        "details": "See {IERC721-safeTransferFrom}."
      },
      "setApprovalForAll(address,bool)": {
        "details": "See {IERC721-setApprovalForAll}."
      },
      "supportsInterface(bytes4)": {
        "details": "See {IERC165-supportsInterface}."
      },
      "symbol()": {
        "details": "See {IERC721Metadata-symbol}."
      },
      "tokenURI(uint256)": {
        "details": "See {IERC721Metadata-tokenURI}."
      },
      "transferFrom(address,address,uint256)": {
        "details": "See {IERC721-transferFrom}."
      }
    },
    "version": 1
  },
  "userdoc": {
    "kind": "user",
    "methods": {},
    "version": 1
  }
}